8=FIX.4.4|9=176|35=D|49=CLIENT12|56=BROKER03|34=215|52=20250927-12:30:05.123|11=12345|55=EUR/USD|54=1|38=1000000|40=2|44=1.1850|60=20250927-12:30:05|10=062|
8=FIX.4.4|9=200|35=8|49=BROKER03|56=CLIENT12|34=216|52=20250927-12:30:06.456|11=12345|17=56789|39=2|150=F|55=EUR/USD|54=1|38=1000000|44=1.1850|60=20250927-12:30:06|10=128|